S0190000696E45617234785F32305F30335F323031382E73333793
S21400000000000220816B00007D6B00007D6B00000D
S2140000107D6B00007D6B00007D6B00007D6B00003B
S2140000207D6B00007D6B00007D6B00007D6B00002B
S2140000307D6B00007D6B00007D6B00007D6B00001B
S2140000407D6B0000B95700007D6B00007D6B0000E3
S214000050912E0000A9570000AD570000055800007B
S214000060B55700007D6B00007D6B00007D6B0000C7
S2140000707D6B00007D6B00007D6B00007D6B0000DB
S2140000807D6B00007D6B00007D6B00007D6B0000CB
S2140000907D6B00007D6B00007D6B00007D6B0000BB
S2140000A07D6B00007D6B00007D6B00007D6B0000AB
S2140000B0BD570000B15700007D6B00009957000047
S2140000C07D6B0000574800007D6B00007D6B0000D4
S2140000D07D6B00007D6B00007D6B00007D6B00007B
S2140000E07D6B00007D6B00007D6B00007D6B00006B
S2140000F07D6B00007D6B00007D6B00007D6B00005B
S2140001007D6B00007D6B00007D6B000010B5054C1C
S214000110237833B9044B13B10448AFF300800123AE
S214000120237010BDC00000200000000014990000DD
S214000130084B10B51BB108480849AFF300800848C3
S214000140036803B910BD074B002BFBD0BDE8104079
S214000150184700BF0000000014990000C4000020EB
S214000160B800002000000000154B002B08BF134B02
S2140001709D46A3F5803A00218B460F461348144A45
S214000180121A07F053FC0F4B002B00D098470E4B6B
S214000190002B00D098470020002104000D000D48D9
S2140001A0002802D00C48AFF3008007F019FC2000AE
S2140001B0290000F015F807F0FFFB00BF000008005C
S2140001C0000002200000000000000000C000002028
S2140001D0501B00200000000000000000000000008F
S2140001E02DE98048974B5B6813F48063A5B008D070
S2140001F04FF000531B68A3F1020EDEF1000343EB41
S2140002000E034FF00052002111608F4C002B43D19B
S2140002101CA806F063FA06F097F9064600283BD0BD
S2140002209DF87030012B27D1456B06F047FA1E9BD0
S2140002305F0704D506F088F906F020FA17E095B1B6
S214000240A36C9BB2B5EB832F0DD2A26C05F13803DD
S21400025092B2B3EB822F06D86B6923B1284606F01C
S21400026053F90028E6D106F5867006F04DF90546E6
S21400027006F014FA284603E000F5867006F044F906
S21400028050B106F061F9054606F05EF96F4B9860CE
S2140002902B689D466B689847E36C1B0E0AD16C4929
S2140002A06C484AF6E8520A60026842F004020260AD
S2140002B00B6001E0012B04D1674A136843F4005336
S2140002C01360664A136A23F4441343F488131362D4
S2140002D0A2F58042136843F480731360604B0222D9
S2140002E09A639A6B02F00F02022A40F0D780DA6C0B
S2140002F022F0405222F0010242F00102DA64D3F802
S214000300EC2042F44072C3F8EC20DA6E42F08072C1
S214000310DA66544B186800B1042005F001FB524B16
S2140003204F4FC8221A80514BA0221A80504B0F20E4
S214000330188005F08DFA4F4BBB6500210C2214A8DF
S21400034007F074FB00210C221CA807F06FFBD4F802
S2140003506831C3F30722DBB21E921693FB6CC3F31D
S214000360017914A81CA900224B4605F0EBFAD7F831
S214000370EC30C3F3012815A81DA90022434605F05A
S214000380E1FADDF878B0DDF858E014991598DDF854
S21400039070C0DDF874A04FF41672CEEB0B03534317
S2140003A0B3FBF2F37344C1EB0C05C0EB0A065B45E6
S2140003B002FB05F502FB06F6B5FBF2F5B6FBF2F618
S2140003C00D4406446AD8734568D3564566D88642B7
S2140003D064D3654562D88D4260D3FA6D22F4FE423E
S2140003E022F0020242EA0323FB654846002101F0A0
S2140003F0A3FD002852D04046012101F09DFD0028B3
S2140004004CD07A6EB54238BF3546E72D22F4FF73DE
S21400041028BFE72523F0010343EA45037B66FB6B11
S21400042043F48063FB633B469A6FD607FCD40C4BC1
S21400043011491B6C13F0030302D001230B601DE06F
S2140004400B6028E000500E40B081E00F00ED00E0A9
S21400045090310E4098310E4064310E4000400E4000
S21400046000300E408009C643321400204814002095
S2140004704A140020372110B7B40AC643604B9A6F5F
S214000480D507FBD41A6C22F003021A649A6F12F096
S2140004900102FBD10A605B4B01221A605A4D5B4F8A
S2140004A0112005F09FFA0220002101F001FC6B6A82
S2140004B0574823F001036B62564B00261E60AB6A5A
S2140004C023F0070343F00603AB62534BEB622A6B41
S2140004D0524B02F07F6213432B63514B6B633146E2
S2140004E005F03AFC4F4805F047FC0220012101F0D8
S2140004F0DFFBD7F84080464841F671333B6431460F
S21400050005F0C8FBB8F1000F00D03E64464E3368D5
S214000510002BFBD102236B67444805F0FFFA05F079
S2140005202BFC06F049FB3368002BFCD1344D696880
S214000530C1F3014105F0D0FB334B5F6A47F04057EB
S214000540D6F80080B8F1000FFAD169683048384D07
S214000550C1F3014105F0C0FB2D4805F00DFC2A4B08
S2140005605F62D3F8C82042F00102C3F8C820A36A2D
S214000570AB65352006A904AACDF81C8005F032FF2D
S21400058030B19DF81030042B02BF069B1868079008
S214000590079BD80317D50AAAAB6D08F8023008F1F6
S2140005A00108B8F1060FF6D19DF82D3043F0600330
S2140005B08DF82D309DF82E3043F001038DF82E3047
S2140005C01C4B5A603EE02C2006A90DF1110205F0E6
S2140005D009FF002836D00AAD06999DF81120284656
S2140005E007F0C4F93C2006A90DF1110205F0FAFE49
S2140005F09DF82E3000B3069A127862F300031DE0D1
S21400060000300E409407C64300400E4000000E40E7
S21400061000F04902A004C8432000050007450BD09F
S21400062047A002000148E801C800C64300250800AC
S214000630005008403804002060F300038DF82E3088
S214000640A94B5D60A94BAA4A1A605A609A604FF49B
S2140006508070002298829A751A82DA75A54BA64990
S21400066019605960996098829A751A82DA75A34B58
S214000670A34808211970A34BA3491960A34BA449AA
S2140006801960A44BA4491960A44BA5495860A54815
S21400069019600360A448C3F88C200160996AA348D7
S2140006A05A65914208BF0146A1489A65A3F84020C2
S2140006B0A3F8422064220160A3F84420A3F8462051
S2140006C0A3F84820A3F84A20A3F84C20A3F84E200D
S2140006D04FF6FF729A82112005F084F9042805D19E
S2140006E0944B5B6813F4403F00F08C8400234FF07B
S2140006F00009914F914A924E5A65C3F8589003F1FB
S2140007000C053B6004F0E2F875A3D3E90023D6E9B4
S2140007100001002119438B4B00F0010010431A68BA
S214000720C6E9000104F02AF904F0B6F8284603F0FA
S214000730F3FD022001F06EFA386864239422A0F8D4
S2140007404430A0F84A309623A0F84C20A0F8483051
S214000750A0F84090A0F842900721343004F0D4FA74
S2140007603D687949012605F10C0004F005F805F10D
S214000770340085F83860022104F0C6FA734B4FF057
S21400078000621A602B7B724A33432B7313683D68F2
S21400079023F00F0343F0030305F10C0005F13408C2
S2140007A06C4D1360494604F010F803F025F8C5F8C0
S2140007B00090694B606AD3F88821684C30407040DE
S2140007C002F48003184300F0D68603232370644B9C
S2140007D0FF221A70444B3868B3F9002047F6FF71C1
S2140007E08A421C4604D0002105F034FC014600E095
S2140007F0FF213868504D0C3003F0E7FF646805F1C0
S21400080008093CB9484605F095FCAB7B64F3000349
S214000810AB7307E02068A860A288A37989F8063041
S214000820A9F804204F4B504C504E514D202283F8CF
S2140008300123002183F80423204683F8062383F847
S214000840072383F8052383F8082383F81D236022F3
S21400085007F0ECF84748484B4FF4907284E80900DC
S214000860BA822523454A637201231370237200233C
S214000870336008A91B230DF1120236202B8005F0E9
S214000880B1FD392006A90DF1130205F0ABFD0DF1FF
S214000890500AB04658B19DF813200699202A28BF62
S2140008A0202250468DF8132007F060F894E0344B71
S2140008B0089918681B7914908AF80430002961D0CA
S2140008C09DF812201B2A28BF1B22531D8DF81330BB
S2140008D00DF15500531C8DF8533007F047F861E0D2
S2140008E0081B881204000000380400203011002085
S2140008F0D407002018110020DC000020501400202F
S2140009004004002060160020907B00005814002051
S214000910707B000068160020D27B0000880500204F
S214000920A11F0000CC1100202C0000208F3F0000EB
S2140009302800002000300E40EC0F0020081B880224
S21400094040140020381400201494000094400846F8
S2140009505C1F0021E81F002100400E40F01100201F
S2140009602400002000E100E0F01A00204C040020E3
S21400097050040020D6BE898E5555550048110020DB
S214000980868E00000E238DF813300A238DF8533020
S214000990C44B1A68CDF855205A681B7ACDF85920F2
S2140009A08DF85D301CA805F0C5FBBF4A9DF81330D6
S2140009B012882AF8032024A99A1C51FA82F20021F0
S2140009C002F8401C1C98BDF8741042F83F0C09331E
S2140009D022F83B1C8DF813303A2006A905AA05F02C
S2140009E001FD58B19DF814200699202A28BF202220
S2140009F01CA88DF8142006F0B9FF09E0AB4B1A8846
S214000A009B788DF872300323ADF870208DF8143083
S214000A10A74EDFF808B396E803000023CBF80030B3
S214000A20CBF80430A34B83E80300184601F054F8D3
S214000A3006F1080292E803009F4B102283E80300A9
S214000A4018461A7201F01EF806F1100393E8030028
S214000A509A4A82E80300022318361372D66013827D
S214000A600096019302F1140006CA00F0E7FF08980A
S214000A70CDF808B010B19DF8121001E089480921A0
S214000A808F4E01F03BF896E803008E4B83E8030098
S214000A90184601F021F806F1080292E803008A4B96
S214000AA0082283E803001A72884903924FF6FE7202
S214000AB01A82D960184600F0E5FFDFF864E206F116
S214000AC0100393E803000C238EF80830804BCEF812
S214000AD00C304FF6FE738EE80300AEF8103070460A
S214000AE000F0D0FF06F1180103C97A4B039A1A8268
S214000AF083E803004FF0020B7749D960184683F865
S214000B0008B000F0BFFF06F1200292E80300734B26
S214000B10734ADA6083E80300012218461A8283F8D3
S214000B2008B000F0AFFF06F128026E4B92E8030013
S214000B306D4ADA604FF6FE7283E803001A821846A2
S214000B40303683F808B000F09DFF684B684ADA60DC
S214000B5096E803004FF6FE7283E803001A821846F2
S214000B6083F808B000F08EFF624B029A1A604FF6C8
S214000B70FF729A809DF81320202A05D8931DA37330
S214000B805D48514606F0F2FE9DF81420202A06D84D
S214000B90931D84F8363059481CA906F0E7FE01F08C
S214000BA011FC237BB97B43F001032373637B01F0C5
S214000BB0010103F0F00361F386136373A37B13B99B
S214000BC04F4B06229A734F4BB9F80420D9F8000011
S214000BD09A8094F835201860042060F3030261F3CD
S214000BE0861284F8352094F836200F3B12B9062278
S214000BF083F83620444BD9F80000B9F80420186072
S214000C009A8005F06BFE414B1B78002BFBD0EFF370
S214000C10108472B6002213460DF115013C4805F00B
S214000C20EDFA204604F0DAFE9DF8153013B10023E5
S214000C30C8F80030D8F80020EFF3108472B6354FAD
S214000C403348C2F501730DF115013A449BB205F025
S214000C50D5FA0646204604F0C1FED8F80000304417
S214000C600328C8F800003E46CDD9B7F800B00BF10F
S214000C7004039842C7D300F29A817C88042C51D092
S214000C80062C40F0948110A80021102206F0CEFE1B
S214000C90214B10932046022310A9119305F07EFBEA
S214000CA085E100BF8C8E0000968E0000998E0000B5
S214000CB0547A0000AC060020300500200405002011
S214000CC0707A0000D4080020DC010020B153000038
S214000CD0955000007C070020338E0000AC040020F6
S214000CE0177B00002407002035670000CC06002094
S214000CF0D565000004120020051B00202D1B0020D7
S214000D00F01A0020FF1A0020271B00205511002093
S214000D10181100203402002010000020F4080020E3
S214000D2054040020A44A3B79A4494FF4804005F0BF
S214000D305BFA3B794FF0000A0BF1FF32082BA5F85F
S214000D4002A092B200F0D28009D8042BDFF8B0924D
S214000D503BD0062B3ED0022B40F07D8510E0102BBA
S214000D6000F0D18004D80A2B00F08B8000F073BD11
S214000D70122B00F08A80522B00F0A18000F06BBD91
S214000D80022A40F06E854FF480408D498D4AB7F8B0
S214000D90053005F029FAB7F8054089498A4AB4F5BE
S214000DA0007F28BF4FF400744FF48040234605F0C0
S214000DB01BFA0021032302200A4689F80030A9F80E
S214000DC0014000F08BFD2C80F1E0042A40F04685BF
S214000DD000F022BCB7F80720B7F805307B49ABF126
S214000DE00704A4B28DE814004FF48040784A05F05A
S214000DF0FBF90B3607F1090C4FF0020BB7F80500AC
S214000E00B7F80710CDF840C0009601948DF844B0AE
S214000E1010AB0CCBCDF808C004F05CFC4FF6FF76A8
S214000E20B0420446DDF808C006D17B68694AC3F3C1
S214000E300F23538000F04BBCCDF830C08DF834B093
S214000E40CDF800A0CDF804A001300CAB0CCB314699
S214000E5080B204F03FFCB04207461CBF00F1FF37EB
S214000E60BFB2234600974FF480405B495B4A05F0CB
S214000E70BBF9072389F80030A9F80140A9F80370E8
S214000E8089E0022A40F0ED844AE0ABF10304A4B204
S214000E90B7F80530524900944FF48040514A05F0A7
S214000EA0A3F9B7F8050004F0EFFB002800F02A8449
S214000EB0037B1A0700F12C84032400F024BCABF15A
S214000EC00304A4B2B6F80530454900944FF48040B8
S214000ED0454A464F05F088F9B6F8050004F0D4FBFD
S214000EE0002864D0037B5B0761D55AE0ABF1050BA5
S214000EF01FFA8BFBBBF1020F00F02584BBF1100F2D
S214000F0038D100F020BCABF1050B1FFA8BFBBBF110
S214000F10020F00F04A84BBF1100F2BD100F045BC45
S214000F204FF480403249334AB7F80530DFF8BC90BA
S214000F3005F05AF9B7F8050004F0A6FB002800F003
S214000F40DB83037B990740F1D5832B88013BADF803
S214000F502430B9F8050010A909AA00F0D7FC044609
S214000F60002800F0B683D9F804301A4AC3F30F23DA
S214000F705380E4B13F796E881F4A00963B46019441
S214000F804FF480401D4905F02FF91D4B01221A70C1
S214000F905F705E801C71002104200A4600F09EFCF3
S214000FA005E0B7F80500F91D224600F0D6FC002340
S214000FB0C8F8003027E600BF987B00009D8E000032
S214000FC0B38F0000617B00003B8E0000D48E0000D3
S214000FD0A87A000050040020FD8E0000A87B0000C8
S214000FE0318F000070900000628E000034020020F6
S214000FF0DD8F0000A07B0000228E00007F8F0000A7
S2140010005509002002F0F8FB4A4B53F8082C53F819
S214001010040C002A48D1484B484D5A691A691A6987
S2140010209A69DB69464BC5F8443148F2E673C5F861
S21400103038314FF40863C5F83431424BC5F8A03058
S214001040414B424E424F4AF63F429A6003F5804378
S2140010504FF0C0729A620023C5F8FC303D4BC5F8CD
S2140010609C303D4B7F221A6003F1007323221A60E6
S21400107003F54253343303221A604FF40023C5F8B5
S21400108094304FF001084023C6F80080334A33609E
S2140010904FF460733B604FF040731360936103F04E
S2140010A015FCC7F800800AE0110C2D4D0904A94272
S2140010B008BF10602B4A08339342A6D1ABE76F688F
S2140010C0DFF87880C7F30367002FF8D101234FF0CD
S2140010D00450C8F87C002449C8F8803041F2DC127D
S2140010E006F044FC214D224BC8F860303946A42255
S2140010F02048D5F8009006F099FC1F4B1F4A5A600E
S21400110039466422C5F800901D4806F08FFCC8F8E2
S2140011108870C8F88C70C8F89070636D2268D9B271
S214001120FF29C2F307432DD05AB2013204BF9021E3
S214001130192329E00880E00FD0FF0FE000400840A8
S214001140C0E653517A27000F003008409440084606
S2140011500C400846806D630324300844F840084677
S21400116000000840B881E00F007C0000E81F002166
S214001170C01F00215C1F0021EC1F00213F0037002C
S214001180F81E002190211923C44ADFF86493022038
S2140011905BB293FBF0F30B44D37323235373C04B20
S2140011A090734FF603721A6003F100734FF0000A53
S2140011B0C3F800A04FF080433360BA4BBA4A1A60B7
S2140011C0BA4BBB4903221A60596040F6FF71596258
S2140011D0B84B1A80B84BB94AA3F800A0B84BC3F86E
S2140011E000A05A604FF400525A62B64BF0221A60C2
S2140011F003F10073A0221A60B34B4FF00108C3F846
S214001200B88002F07FFEB14BB148C3F80080B14B06
S214001210C3F80080B04BC9F8003003F02FFE4FF43F
S214001220FA714FF47A75B0FBF5F7AC4879430A02C9
S21400123080184FEA11634FF000015941A84A002375
S21400124006F0B6F8A0F58073C9F8283050EA010316
S214001250824603D12B2002F083FEC24605FB0AF528
S2140012604FF00008680818EB00024FEA072949F11A
S2140012700003104619462A46434606F099F8994B4D
S2140012801960994B4FEA0A6B8046894618604FEA08
S2140012901A2A1FB92B2002F063FE01274FF47A7139
S2140012A0ABFB0123780801FB0A3312EB000A43F17B
S2140012B0000B00253A46504659462B4606F078F86D
S2140012C08A4B8B4F19608B4B18F10208186049F156
S2140012D000094FEA980343EA8973013B3B63864B58
S2140012E0DFF8649285484FF00052C3F880214FF033
S2140012F0070A1A6001237B60C9F884A003F0BEFDCC
S2140013004FEAD00B030B80467D484FEACB5280183D
S2140013104FF0000159417B4A002306F049F87A4B0A
S21400132018604EF6602003F0D9FCDFF820C2404279
S214001330CCF82C006A48CDF808C002F081FA0246C4
S21400134043084FEA8B30C0184FEA585141F100016C
S214001350002306F02DF8DDF808C05146CCF804004E
S2140013606A4803F0D1FC6A4BC7F80031694AA3F516
S2140013702003C7F810314FF4002315703360664B16
S214001380D3F8C81041F06C008842164640F06C82D4
S214001390D9F80C20D10700F16782D3F81031C3F3D7
S2140013A00823002B40F06082EFF3108072B65B4B90
S2140013B05B4A9F69A3F5C0434FF06055D3F884108D
S2140013C0156002F100724FF0006515602422C3F824
S2140013D08420544A042515604FF480429A664FF4E0
S2140013E080525A62504B1A6E5204FBD51A68D505C5
S2140013F0F8D54FF480429A66DFF854E1D3F8885067
S2140014001C954FF0040CCEF800C0C3F88410434976
S2140014108F619A6604F0E2FAADB24FF605034FF616
S2140014200402954208BF1D46314B9D65012333706B
S2140014303E4B3F4D186803F065FD002148223D48AD
S21400144006F0F4FA384A3C496023062053640860E4
S2140014500021C2F88410394A4FF08051116002F51D
S214001460FC5204324FF4001111604FF060511160CD
S214001470154A40F6FF715162516502F1C062A2F64C
S214001480BC7213602E4B40221A60D5F88C0000F018
S214001490C1FB03F01BFA2B4B5CE000BF5C1F002176
S2140014A07C000844A41100200148000030100840C9
S2140014B08C0D0020B0110020AE1100202406002064
S2140014C09010084040000844001008400C400844B3
S2140014D000040600C8400E460011010020A10700C7
S2140014E040420F00C4110020C0110020800D0020D3
S2140014F000500840880D002000E100E06051070021
S214001500B2E60E0065CD1D00E8110020BC050020E7
S2140015100300C0000012002000400E40006008409B
S21400152018600844004008460000084030000020CC
S214001530880500200C1F00217000084494400844D1
S2140015408840084440140020004008408C1F0021BA
S21400155000400844D3E9000140F0805041F0040107
S214001560C3E90001C24B1A6803F008FA03F094F9C5
S2140015702B46FFF7BCB8BF4B1A689B88A380226037
S21400158002F002FC0A20414602F080FB2378022B80
S21400159013D12B6823F0804323F0170343F08043D6
S2140015A02B60B54B4FF4EE421A6003F100734FF414
S2140015B08A421A6043F8046C24E0012B2B68AF4A79
S2140015C0AF48B04923F0804323F017030CD143F013
S2140015D003032B600723136006230360AA4B0B60EC
S2140015E04FF44042A94B0CE043F0804343F0040321
S2140015F02B600723136005230360C0230B60A44BF6
S21400160081221A60002002F0BFFBA24B03221A6060
S21400161002F00AFBFFF7DEB8B7F80720B7F8053088
S2140016209D4900924FF480409C4A04F0DDFDB7F8D7
S21400163005401FFA84FA5046264604F025F800288E
S21400164043D0047A47689649CDF800A0022C14BF10
S2140016504FF0020B4FF0010B5B464FF48040914A6F
S21400166004F0C2FD052389F8003089F801B0A9F816
S214001670026010E0BDF816408B4A009433464FF4E3
S21400168080408A49099F04F0AFFD894B09221A70F1
S214001690A21C5A705E80032014E0BDF81640854AEE
S2140016A000964FF480404B4601948349099F04F00E
S2140016B09BFD7F4B11221A70221D5A70A3F80290D0
S2140016C09E8005203946224668E47C4B5C800A24CE
S2140016D050E4BDF824607A497A4A109F4FF480405F
S2140016E0334604F081FD724B0B221A7020463946B1
S2140016F0324653E4022400E001247B68C3F30F2340
S2140017006B8036E401247B68C3F30F236B8031E4DF
S214001710DFF8BC91B7F80500224609F1070100F092
S2140017201CF9044610B1D9F80430EDE74FF48040B8
S2140017306549664A04F058FD5D4B13221A70204630
S214001740214622462AE4B6F80720614CB6F8053052
S214001750514900924FF480405E4A04F045FD04F182
S214001760090310938DF844B00023B6F80500B6F8C8
S21400177007100093019310AB0CCB03F0ABFF4FF6B2
S214001780FF739842064638D02B8809A9043B0DF112
S2140017901602ADF8163000F0B9F8044600283FF4FB
S2140017A069AF464B5E80FFF7E4BBB6F80720484CAF
S2140017B0B6F80530384900924FF48040464A04F0A7
S2140017C013FD5FFA8BFBB6F80500B6F807108DF828
S2140017D044B004F1090C0026CDF840C000960196EE
S2140017E010AB0CCBCDF808C003F074FF4FF6FF7AB1
S2140017F050458146DDF808C004D16368C3F30F2363
S2140018006B8064E7CDF838C0009601968DF83CB042
S21400181009F101000EAB0CCB514680B203F05AFF23
S2140018202B8850450646A3F1060318BF00F1FF3685
S21400183009A948460DF1160218BFB6B2ADF8163023
S21400184000F064F8044600283FF427AF1B4BA3F8CB
S2140018500290FFF78EBB0624FFF78CBB1C46FFF7F3
S21400186089BB0424FFF786BB142002F079FBDDE574
S214001870381400201C8E0000244108440C41084403
S2140018800C41084608410844C10040000441084491
S2140018900841084658410844BF8F0000E07B00001E
S2140018A0B08E0000FC7A0000787B0000318F0000CC
S2140018B0550900206B8E0000558F00005004002054
S2140018C0228F0000528E00004F8F0000507B0000D9
S2140018D034020020C37B00007990000070B586B00B
S2140018E00E461546044618226846002106F09EF865
S2140018F00134054B00930420694601940296039533
S21400190004F04CFD06B070BD5509002037B50D46F5
S214001910144603F0B9FE38B10369828AC3B14FF6A4
S214001920FE718A4214D101E0012014E000200090EC
S214001930ADF804006946984768B9009B2B60BDF86F
S21400194004302380286808B9208004E0002002E0E4
S2140019502B602280F6E703B030BD37B50D4614463F
S21400196003F092FE38B103693BB1818A4FF6FE72EE
S214001970914202D103E0012007E00E2005E0009529
S214001980ADF8044001206946984703B030BD00001A
S214001990224B1A78D00742BF214A4FF4806111606B
S2140019A01A78910742BF1E4A4FF4006111601A78F8
S2140019B01B78520742BF1B4A4FF48061116018071C
S2140019C042BF184B4FF400621A60174B4FF4806208
S2140019D01A60164B00225A61643B1A68910642BF91
S2140019E0134A4FF4807111601B681A0612D59B06C5
S2140019F010D5104A136AC3F30803032B0CD9516899
S214001A00D3680333C3F308030B4403F100531A7877
S214001A10094B5A6000207047032070475409002085
S214001A20A0000846A40008461C6008445C1F00216D
S214001A308840084600100840FC1E002137B58DE897
S214001A40060004469DE80300251D85E8050023736F
S214001A50069B2361BDF81C30A38200232360084B3D
S214001A601A682AB1116809B10A46FBE7146000E05B
S214001A701C609888013080B2988003B030BD00BFEB
S214001A80F408002037B500F1440300930379114AA7
S214001A9004460333019306CA02231430FFF7CEFF31
S214001AA0E2680092228A237A019204F12C0094E8DC
S214001AB00600FFF7C3FF237AA4F84500054684F81E
S214001AC0443004F147002168227905F04FFF28468C
S214001AD003B030BDC890000007B502680092064B00
S214001AE002790192083093E806000223FFF7A6FF6A
S214001AF003B05DF804FB00BFA890000070B50D4C65
S214001B000D4B06460D4694E80300083483E80300B0
S214001B101846FFF7E1FF94E80300084B83E803004C
S214001B200222DE601D821846BDE870401A72FFF77A
S214001B30A9BF00BF8C9000005C0D0020FC080020B0
S214001B400A4B40F2011210B51A604FF0FF329A604D
S214001B5001225A600844814204D0044A11F8014B1D
S214001B609461F8E7D869C04310BD00BF00C00140CB
S214001B70C0F30323013B10B50446092B36D8DFE833
S214001B8003F02010083505131635191D0022184BD2
S214001B9019E0184803F0C2FF04F0EEF80022164BD6
S214001BA011E00022154B0EE00122154B0BE010222F
S214001BB0144B08E04FF48032134B04E00022134B22
S214001BC001E0134B0022C4F3043442B11049D1F8AB
S214001BD04401C00703D4D1F840010242FBD103F10F
S214001BE0047304EBC3039B0001221A6010BD00BF00
S214001BF0B0400E4000250800B8400E40C0400E40E1
S214001C00E0400E40E8400E40F0400E4050410E408E
S214001C1000400E4010F0080F14BF1E4A1E4A08234C
S214001C2010F0010F136014BF1A4A1B4A012310F06C
S214001C30040F136014BF194A194A4FF4007310F0CA
S214001C40020F136014BF134A134A0223136010F0E6
S214001C50100F144B00F0600014BF00221B22402817
S214001C60DA64114B0FD0602803D020280ED1012251
S214001C700DE00E4AD2684AB11168012906D95269A8
S214001C8042F0010203E040F2011200E000221A6175
S214001C900020704744000846440008441C6008467C
S214001CA01C600844000008405C1F0021EC1F002157
S214001CB0F8B5042800F2A380DFE800F008030F2B35
S214001CC09C00802540240623072226E04FF400755A
S214001CD04FF48074082309221FE000297FD0484A69
S214001CE0536A13F0300F0BD1464BDB6B536AD907A0
S214001CF00AD5536A23F0300343F01003536203E01F
S214001D000322022304240AE00322022304240125DA
S214001D1006E00124022500232246002961D0002582
S214001D2037490C663849194489000B68002BFCD0EB
S214001D30354F1744BF003B68002BFCD002285ED10D
S214001D40002D5CD02E4B5A6A12F0010F1A4618D09E
S214001D504FF48062C3F8A82020225A665B6A13F00C
S214001D60300F0CBF4FF440034FF400032449D1F862
S214001D7090201A409A42F9D15B020DD5D1F8A030D6
S214001D800AE0536AD2F8903003F44003B3F5400FEC
S214001D90F8D11B4BD3F8A030194E02200021D6F8FC
S214001DA09C50FFF785FFD6F89030736A174A23F0E9
S214001DB0300343F010037362336B1A40C5F30A0313
S214001DC0C5F3C3151A43EB1C0F2B28BF0F2342EA9B
S214001DD00373336334663B68002BFCD0F8BD0825DC
S214001DE00223074A1566084A1A4492001368002B15
S214001DF0FCD1F8BD20251024042305228DE7F8BD6C
S214001E0000400E4000300E408004F21000F8FF0F35
S214001E1070B5134C2268A2F17E63A3F58433B3F544
S214001E20104FE0B005460E4607D2126BA2F17E6355
S214001E30A3F58433B3F5104F02D34FF401700DE0D1
S214001E40536A002069464FF4C072984730B9236839
S214001E501B6B6846DB6A29463246984760B070BD01
S214001E602808E10F0F4A0B461168A1F17E62A2F521
S214001E708432B2F5104F30B505460FD2096BA1F18A
S214001E807E62A2F58432B2F5104F07D20C69064A7C
S214001E902946A4460020BDE8304060474FF48170D4
S214001EA030BD00BF2808E10F5C09002010B51A4CB1
S214001EB02268A2F17E63A3F58433B3F5104FE0B039
S214001EC010D2136B73B15B6A002069464FF4C07280
S214001ED09847F8B92268A2F17E63A3F58433B3F578
S214001EE0104F02D34FF4017014E0126BA2F17E6320
S214001EF0A3F58433B3F5104FF4D2936A68460021F5
S214001F00984740F201239842E4D040F203239842D7
S214001F1008BF002060B010BD2808E10F042806D8CE
S214001F200138032806D8DFE800F002020202002388
S214001F301B78FFDE70470000174BD3F8803103286C
S214001F4028D8DFE800F00204070ADBB206E0C3F395
S214001F50072303E0C3F3074300E01B0E59B91B0336
S214001F6013F4702F16D10D49CA6E22F47042134333
S214001F70CB66012070470129FBD11B0313F4702F99
S214001F8008D10648D0F8EC2022F470421343C0F87B
S214001F90EC30EEE700207047B081E00F00300E40D6
S214001FA02DE9F04FA54D8BB04FF4867011461F46B5
S214001FB0164604F0D3F82B69A8462BB94FF4837065
S214001FC0314604F0CBF8C8E1002F08BF082E40F0D9
S214001FD0BE804FF48170002104F0C0F8EFF3108B40
S214001FE072B69749974BB1F800E0974E1F68049178
S214001FF00EF03F0000F03C0232440593DFF8649296
S2140020003FB9B9F800307344033B03F03C039D1915
S21400201001E027F00105281A801BB9F8007048BFB8
S2140020204030B84217DA9542884F03D1FA6B1FFA50
S21400203082FA07E02A1FB24238BF05F13C02128836
S214002040C2F30C0AD7F88070C7F30C07B84217DA49
S2140020502888070401D5584651E0AF7807F00707EF
S214002060CAEB0004052FC4F309041BD901F0A6FB34
S214002070201A84B2200415D5042001F071FF11E067
S2140020807248846B00F54050CAEB0404C4F309049C
S214002090406834B9C0F3036003280CBF0827002744
S2140020A000E008276A4BCAF3080003445846A4B267
S2140020B0029303F093FC4DB379070BD0EFF3108037
S2140020C072B66449644A0D6064491480A1F800A0A1
S2140020D003F084FC022D7FD8EFF3108072B6049BC9
S2140020E01F8807F03F0269D0574BAA1AB2EB030AC3
S2140020F0B9F8002048BF0AF1400A924502DB03F017
S2140021006DFC03E003F06AFC002D65D1009B06938E
S214002110D8F80430039A5B7A8DF81C309DF80430AA
S2140021208DF81D309DF81E30ADF8204062F3000398
S2140021308DF81E30029B09930220D8F8103006A9AD
S2140021409847D8F800000C3002F088F805E1002F18
S21400215008BFB6F5002F07D140F20110002103F0AA
S214002160FDFF2B69012026E006F4C052002313432E
S21400217008D04FF481704FF4807103F0EFFF2B69A5
S214002180032018E006F440720023134302D04FF4F5
S214002190817006E006F020720023134303D040F25D
S2140021A00110012102E04FF48370314603F0D6FFA0
S2140021B0D8F81030FF2000219847CEE0059B19681C
S2140021C039B9B9F800303B44033B03F03C03F5183B
S2140021D08AE721F0010587E7B5F80090AB7819F497
S2140021E0004F93D103F00703052B8FD9DA1F534214
S2140021F05341039301F0E2FAC6B2002E00F0A98024
S214002200124B1B6B03F00703063301279F40A9F10F
S21400221006017B1E89B21940114B5B687F1A43F09A
S2140022200059BE4206A849441ED93A4605F09EFB10
S21400223006ABD8194946F21B17E000BFEC0F00208A
S214002240AE1100209C1100205811002000100840FC
S2140022508C0D0020D81100207C0D0020840D00205D
S21400226030100840B0110020324605F07FFB9DF884
S214002270183001933A4B9DF81A60D3F800B0394BEA
S2140022809DF81BA0D86D9DF81C709DF81D90C0F39E
S2140022900111000C01FB000042F2107188423FF66B
S2140022A035AFDB6903F01F0301331D1801F03EFA5A
S2140022B02D491423B0FBF3F301FB05350A23B0FBCD
S2140022C0F3F0B5FBF0F04042EFF3108272B6274D04
S2140022D0274BDFF8A8C0A9691B78DCF800C0DBB282
S2140022E0BCF1000F02D00133A969DBB202B962B6B5
S2140022F03F0447EA0962324342EA0A2291423CBF5F
S21400230003F1FF33DBB203F00301184B1D6B002310
S2140023100135E1FB05231749DBF8345009684FF413
S2140023207A7E05F5FA75B5FBFEF5C5EB000E124D87
S214002330A2FB016716F1004601FB03772D6847F103
S21400234000073846A2FB056736180EEB0603009317
S214002350DCE6802301930096D8E60BB0BDE8F08F4C
S214002360CC11002000600840A08601000050084004
S214002370A0110020880D0020800D0020880B0A4345
S21400238038B5074C0749A579074A2B464FF48050C5
S21400239003F02AFF054B1D750023236038BD00BFE0
S2140023A004100020309200005A940000900F002085
S2140023B010B5034CA07900F04BF90023236010BD44
S2140023C00410002008B54FF48570002103F0C6FE07
S2140023D0064B002201201A610146024602F0E0FB8D
S2140023E001F05CFF0128FBD108BD00BFEC0F002008
S2140023F0012838B516BF012402252546284608BF01
S214002400042401F0BBFD78B1012001F0B7FD58B1FE
S21400241001F044FF42075FBF0E4B188840F0807003
S21400242040EA054058BF1860204601F0A7FD78B185
S214002430012001F0A3FD58B101F030FF83075FBF14
S214002440044B5A8844EA024444F4807458BF1C6023
S21400245038BD00BF081F002138B5B1F5007F0F4B0F
S21400246028BF4FF4007103221A600D465860EFF340
S214002470108072B6D3F8E0201C4612F0040F4FF01E
S2140024800001D9609D6004BF0423C4F8E83003F05F
S214002490A5FA0DB10223A36238BD00BF00100840A4
S2140024A02DE9F843404D42682C686860217B03683C
S2140024B0467ACF073CD592FAA2F23C493C4F120A24
S2140024C00A6101228A603B6613F0010FFA6D14BFA1
S2140024D05521AA2122F00F0255290CBF42F0010215
S2140024E042F00202FA6593FAA3F391FAA1F1314A97
S2140024F001F070411B0C43EA11332F49116002F1C1
S214002500007246F0400613602C4B4422DA621E63CB
S21400251003F18063343307221A6003F1007301224B
S2140025201A60274A4FF48043136053609360D36069
S214002530AB8AD90535D5234B067A1A78B242994626
S2140025402FD0012E04F10C0802D0022E12D024E067
S214002550237BDA0721D501F0A1FE012806461CD10F
S2140025601949404602F008F984F8386004F134004E
S214002570022110E0237BDB070FD501F08FFE012838
S21400258007460AD11149404602F0F6F884F838703A
S21400259004F13400314602F0B7FB6B681B7A89F809
S2140025A00030BDE8F88300BFEC0F00200020084094
S2140025B000600840FC600844FFFF0F000000084071
S2140025C0A0000844860D002014940000109100001E
S2140025D0837DDB0701D5808A7047426883689B1A33
S2140025E044BF828A9B1898B270472DE9F041164680
S2140025F005468846FFF7ECFFB04228BF304686B255
S2140026003746D7B12C68AB8A696823445B1A9CB2FC
S214002610BC4228BF3C462246404605F0A7F96B68F8
S2140026202968AA8A23440A44A0449342A7EB0404D8
S2140026306B60A7B228BF6960E3E72EB1AB7DDA070F
S21400264044BF23F00103AB753046BDE8F0810000BF
S21400265008B5244A2449254C03464FF4006003F08D
S214002660C3FD234A937E43F040039376214B00221A
S2140026701A70214B1B780125EBB104F01FF84FF0C0
S214002680005340F20222A5601A804FF20F025A80D1
S214002690236823F4E06343F480632360BFF34F8F23
S2140026A01649174BCA6802F4E0621343CB60BFF3C7
S2140026B04F8F00BFFDE74FF00052A5601360236800
S2140026C023F4E06343F480632360BFF34F8F0B492A
S2140026D00B4BCA6802F4E0621343CB60BFF34F8F24
S2140026E000BFFDE7B0960000D696000000500E40F2
S2140026F0900F0020551100208C0F002000ED00E008
S2140027000400FA0510B5134CA37E5B0621D4FFF730
S21400271059FE2168A38C40F2E24202FB03122260BB
S214002720A17A94F84F2025200A4492FBF0F100FB92
S2140027301122A27222890132228162680A2101FBDB
S21400274003236360238B5A1E228313B90820FFF7E6
S2140027507FFF10BD900F00202DE9F04F85B0634C31
S21400276040F60100218903F0F9FCA37EC3F3801232
S2140027702546002A40F0B78043F001035C4962F327
S214002780410362F382030A68A37623891AB1898813
S214002790994200D19047A37A56482B44564D93F859
S2140027A02A306375FFF77CFE6B68544A5B7A2768AD
S2140027B0666812F803900120FFF71AFED5F800802D
S2140027C001F06CFD012804467FD108F10C00494653
S2140027D001F0DAFE00287AD1B8F844307608B81B43
S2140027E0C01A01F02DF8804607F16400304489468F
S2140027F001F026F806460F46EFF3108B72B64049F6
S214002800D1F8302112F0010255D13E4BCB663E4B3B
S2140028100A673E481C703E4BDFF80CA11A7003682E
S21400282023F0400303604FF40063CAF800404B6691
S214002830384BCB66032000924B464246039101F08C
S21400284065F8039918B9584603F0C8F840E0D1F87F
S2140028503031DA0703D4304B5B685B042BD52F4B43
S214002860DFF89C8001241C7002F04EF92C4B1C6093
S2140028704FF48053C8F86430D8F86C3023F0F8531F
S21400288023F4F81343F0506343F480334FF0000909
S214002890C8F86C300420CDF8009032463B4601F074
S2140028A035F868B94FF40063CAF80040C8F86430D9
S2140028B0144BC8F86C30584603F090F8032407E031
S2140028C0584603F08BF84C4602E0022400E004462B
S2140028D028680C3001F0C2FC14B1FFF713FF3EE786
S2140028E0054B104A1A6105B0BDE8F08F900F002026
S2140028F0041000209C0F0020EC0F0020889600009B
S2140029000050084000000101A8110020F81E002118
S21400291099110020010C0100004008409811002089
S214002920405108448129000030510844044B5A6D38
S21400293022B95865A3F85810012070470020704748
S214002940900F0020D0B50C4CE38C0A20584304F0BE
S21400295097FA0646A08C0F4604F092FA0022074B20
S21400296004F0F4FA02460B463046394604F018FCEA
S21400297004F0FEFC2083D0BD900F00200000F43F42
S2140029802DE9F047022886B00D460BD003D8012863
S21400299000F0FF8108E2032800F00182FF2800F023
S2140029A0FE8101E2BC4ECC68B37ED80708D56FF333
S2140029B00003B376002373600B683360FFF7C2FF33
S2140029C0AB79B64F13F0010F40F6030004D14FF079
S2140029D0FF3103F0C3FB9EE12188DFF8BC8203F0E1
S2140029E0BDFB2378B27EC3F3001363F38202237821
S2140029F0B276C3F3C001C2F30012914240F02281C6
S214002A0003F00303022B00F0FB80032B05D0012B01
S214002A1040F018814FF00009F4E04FF48050A049D0
S214002A20A04AA37803F0E0FBA578022D6ED01ED84E
S214002A30002D4ED0012D40F0A8804FF480509A49CA
S214002A409A4A238903F0D0FB627A237A984943EAAC
S214002A5002238B800B46974A43F8062B224652F8F1
S214002A60030FC1F806009188998092795DE00C2DDD
S214002A7024D0142D5BD0082D40F0878025464FF4D7
S214002A80805055F8032F8C496B688DE80C008B4AF4
S214002A9003F0AAFB2A688A4B02F0FF02988A42F4E7
S214002AA07F42024087480021054600230B4009214B
S214002AB005F8011BC0F801206B607BE1814800230C
S214002AC00570012545708570C37005714371062138
S214002AD070E14FF4805074497B4AA38903F084FB6D
S214002AE0627B237B724843EA022383800346774A4D
S214002AF043F8062B224652F8031FC0F8061051680A
S214002B00596011891981927A9A7255E1704AE37870
S214002B1070494FF4805003F067FBB8F80820644B08
S214002B2005329A806C4A1A60E2789A7144E1B4F8E9
S214002B300520B4F803300092B4F807200192B4F8E8
S214002B40092002924FF480506449654A03F04CFB1A
S214002B50B4F805305B48DA08B4F80330934228BF6F
S214002B601346A8F82830152300216FF004056FF0EF
S214002B70270203700723817081714570C27003714C
S214002B804571C2710372092114E1564B1B78002B64
S214002B9000F00B81162D1BD0182D40F006812279EF
S214002BA0E3780092B4F8052001924F494F4A4FF45B
S214002BB0805003F019FB6279A1793D4B42EA01226D
S214002BC09A804B4A1A60D4F80320C3F80620F3E034
S214002BD02279E378474900924FF48050464A03F042
S214002BE003FBE27823793748134003F00303022BF4
S214002BF018BF012317220270437083700321D9E0A7
S214002C004FF0010994F80180B8F1000F00F0D4806D
S214002C103A48858AFFF7DCFC281A04F1020A80B2DB
S214002C20B9F1000F04D0022886BF023880B2002017
S214002C301FFA88F3984205D3494652462F4803F0B8
S214002C4009FBB9E00023B27E2078C2F3C001C0F3CE
S214002C508000884256D081F0010161F3C302D2B2EF
S214002C600D4942F020028A76002B4CD1B37E716D5E
S214002C70094C6FF34513B376002950D03B7894F88F
S214002C8058207A7043F003033B701D4804F06EFE34
S214002C90002363655AE000BF900F00201810002044
S214002CA0E9960000C5970000FA960000CE9700004F
S214002CB004100020216300001C970000DC97000031
S214002CC0EC0F00204911002060960000C56200004D
S214002CD0749600000A970000B123000035970000A4
S214002CE0CC9600004811002097970000BF96000081
S214002CF081230000779700008196000018110020BD
S214002D001A1000203BB1B37EC3F3001282F001021A
S214002D1062F30413B376B37E990617D5A6E729485F
S214002D20294A94F828300DF1170103F067FAC0B26B
S214002D3030B19DF81730002B0CBF0122022200E0B4
S214002D4001223B78787062F301033B701D48FFF761
S214002D503FFCB37E003018BF012060F34103B3761A
S214002D60DAB23B78C2F3001161F38203C2F3C00209
S214002D7062F3C30360F304133B70398840F6020025
S214002D8003F0ECF9797811480231C9B2FFF764FB19
S214002D9014E00F4B9B7E5A0710D49B070ED4FFF708
S214002DA0B1FCFFF7D9FC09E0FEE70A4807230370E9
S214002DB045700221FFF7BAFD012344E706B0BDE8DF
S214002DC0F08700BF301100201A10002018100020D5
S214002DD0900F002049110020084A10B5146840F2F0
S214002DE0E243584303FB0141536800F5807001EB52
S214002DF0500118441160506010BD00BF900F0020B5
S214002E0030B500228BB01346D91003F00704415C9E
S214002E102141CC0741BF0AA98918013201F8283C94
S214002E200133252BF0D10D4C0023D91003F00705F4
S214002E30415C2941C9075FBF0AAD93FBF2F102FB73
S214002E40113149194EBF237011F8281C2170013327
S214002E50252B04F10104E8D10BB030BDBA0F0020D9
S214002E6038B50546EFF3108472B601F04BF815B18D
S214002E7001F04AFE04E0054B1B780BB901F052FE48
S214002E802046BDE8384002F0A9BD00BF341400203B
S214002E909A4B2DE9F74F1A6EDF6E17409F6603F5C3
S214002EA08053D3F8E020D3F8EC601640C3F8E8600F
S214002EB003F5A043D3F80022D3F80C1201EA020A65
S214002EC0C3F808A2A3F500535A69196A01EA020872
S214002ED04FEA18421204DA61894BD3F800229200B6
S214002EE004D4D3F80031C3F3407303B3EFF3108078
S214002EF072B6844BDA6812F0060FDA6D996E01EA44
S214002F00020929F4800222F4006214BF4FF0010B7C
S214002F104FF0000B19F0040F5A661FBF7A4A137859
S214002F200133DBB218BF137002F058FD01E09B4678
S214002F309946002F3FD03D0413D5744B7449D3F8FF
S214002F408830A02003F4E0520A600860102041F8A0
S214002F50880C42B1DC0409D458050AD44FF40004A6
S214002F6009E0002407E04FF4002404E04FF000746A
S214002F7001E04FF40014B9074FF0000515D5634B78
S214002F806349D3F8883003F460420A6012B944F407
S214002F9080140AE01A0402D544F0806405E0980420
S214002FA04CBF44F4800444F0807417F4005F0CBFF8
S214002FB00027022701E000240025564B3340002B53
S214002FC054D016F4206F07D00020FFF749FF0620E4
S214002FD026F4802600F0C4FF16F0090F09D04B4BEC
S214002FE020229A60A3F5405301229A62082000F03E
S214002FF0B7FF16F0106F19D0444B20229A60464A4D
S2140030000123C2F8B8300192EFF31083009372B632
S2140030100020FEF783FF009B184602F0DFFC019AB3
S2140030200423C2F8B830092000F09AFF16F4202FC7
S21400303007D00020FFF714FF072026F4802600F0B4
S2140030408FFFF10312D5354B4FF480321A60324BA6
S214003050C3F8E420D3F88020C2F30C023C2A05D83B
S214003060D3F8E030DA0301D500F032FF73070BD552
S2140030702B4B1A684FF4005322B12A4A44F480249A
S214003080136001E0284A1360700548BF44F004044A
S21400309016F4802656D02549254B0A881B882548D5
S2140030A01344043292B2033B0A8003F03C032249E5
S2140030B003444A629A7802F00702042A03D11349AD
S2140030C049680903FBD41D490B60531E062B05D81F
S2140030D0DFE803F0080B080E11363600032000F078
S2140030E03FFF2FE044F400542CE044F4806429E0D1
S2140030F044F4007426E044F4807423E000000840A2
S21400310000E100E000500840A01100200040084008
S21400311088400844090A0B0900100840EC100844CF
S214003120B40402432410084424100846B0110020BA
S214003130AE11002058110020601008409C1100209D
S21400314044F00804BAF1000F1DD01AF4805F18BFCF
S21400315044F400441AF4807F18BF44F480341AF410
S214003160005F18BF44F010041AF4007F18BF44F044
S21400317020041AF4806F18BF44F040041AF4006F5D
S21400318018BF44F08004B8F1000F30D018F0007F6C
S21400319018BF47F0080718F0806F18BF47F01007F1
S2140031A018F0006F18BF47F0200718F4802F18BFDC
S2140031B045F0040518F4803F18BF44F4006418F482
S2140031C0801F18BF44F4804418F4001F18BF44F052
S2140031D0020418F4002F0AD0974B5B68C3F303630E
S2140031E09A1E012A01D9072B01D144F40034B9F103
S2140031F0000F00F0E38019F4006F21D08F49904A49
S214003200CB7883B1013B4FF40060DBB25066CB70E5
S214003210B3B98C4B197840F6014381B102F1C06214
S2140032206C3213600CE088490120086087484FF430
S214003230006141F61F7E5166C0F800E051661367D4
S21400324019F0007F04D02B2000F0ECFA44F0804404
S21400325019F4E00F06D119F4805F00F09D80BBF1F1
S214003260000F54D019F4001F04D0292000F0DAFA19
S21400327044F0005419F4800F16D0754BDFF8C0A147
S21400328001221A604FF48053CAF86430272000F0F9
S214003290C9FA704BA0221A60102243F8882C4FF40B
S2140032A08003CAF864302FE019F4801F0CD0684BF6
S2140032B001221A60624B4FF480525A66282000F0B2
S2140032C0B1FA44F0006467E019F4805F64D0604BA4
S2140032D0DFF86CA14FF0010BC3F800B04FF4805339
S2140032E0CAF86430222000F09DFA4FF48023CAF812
S2140032F00430DAF85C3013F4A00F4DD12A2000F029
S21400330091FA554BC3F828B044F0805444E04B4A39
S214003310137943B1013BDBB2137113B94F4B504ADB
S2140033201A60002235E04A4B01221A60444B4FF4E3
S2140033308051596644490A604FF400625A66494A09
S214003340DA66EFF3108B72B6474B1B780BB101F0C1
S2140033500BFC414B384A1B6D5268C2F30362032ACA
S21400336002D0C3F30C0333B1404B1A78404B4FF0F6
S214003370010A1A7000E09A46584602F02FFBBAF18E
S214003380000FCED13B4B83F800A001F0C7FA4FF4F4
S2140033908052002314431D4319F4806F0ED0274A31
S2140033A093781BB1013B9370002306E0324A012359
S2140033B01360234A4FF4806151661F432F4BDFF89A
S2140033C0D090D3E900012E4B1A68204001232940F3
S2140033D03A4089F8003002F02BFD002389F80030CF
S2140033E0002E00F0AB80274C2368002B00F0A48052
S2140033F0D80700F19F80EFF3108572B62248234A63
S214003400018801F03F0101F03C07022B174406D16A
S2140034102368002B00F08B8023F0010302E0012BD1
S21400342008BF3B46266826F00106B34232D1154A4D
S2140034300021116037E000BF00400840A9110020BD
S21400344000500840A8110020305108446C50084431
S2140034504051084488400844001008406C50084614
S2140034600000010D000001019811002099110020B4
S2140034709A1100209B11002020510844401400207F
S214003480381400209C110020AE1100205811002096
S21400349034140020591A8A1A4749098848BF40320E
S2140034A004398A4243DA1A886FEA42426FEA524285
S2140034B0BB421A8034D1404EB0F8009037883A4666
S2140034C0043A92B2DFF810C109EB0701891A1FFA15
S2140034D081FEACF1400A191D614528BF5146042AF9
S2140034E011D899781B883280344EC3F30C03F363EB
S2140034F001F00701324B0EF07F0604290680DE60DD
S2140035005A620DD106E0B1F900C0BCF1000FE8DA4E
S2140035100B46D5E72B4B1B6803B1984700F0F6F82F
S214003520264BD3F8E030D90301D500F0D1FC28466D
S21400353002F054FA0023236001F0F4FAB8F1000F09
S21400354036D018F0007F21D01F4BD3F83821D20692
S21400355055BFD3F80021D3F8182122F47F1122F4A6
S2140035607F1155BFD3F80021D3F8182102F47E123C
S21400357002F47E1255BF41EA520241EA5202C3F8F3
S2140035800021C3F818214FF00072DA6118F0006FBE
S2140035900ED00D4BD3F8383113F0100F0CBF0B4A7A
S2140035A00B4A4FF4001313600A4B4FF000621A6088
S2140035B003B0BDE8F08F00BFB01100200010084037
S2140035C060100840A4110020004008400041084454
S2140035D018410844204008449811002038B5094B8B
S2140035E004221A601C46084BD3F888305B0307D5C4
S2140035F0064B04251D60022000F038F92560F2E72E
S21400360038BD00BF8840084600400840884008444F
S21400361010B5EFF3108472B60B4A0C4B0C49906948
S2140036201B780968DBB209B9002103E00133906911
S2140036300021DBB204B962B6034A126B03F003033F
S2140036400132E3FB020110BD00500840A01100202B
S214003650880B0A4370B5264A1378032B46D0254CB0
S21400366023685A2823F47F51C3F3873321F00801D7
S2140036704FEA83130BD95588B5F5E16F09D8C828EA
S21400368043F6C8768ABF01250025334604E00025A8
S21400369002E0012543F6C8730B431E2823604FF053
S2140036A0010303D8144A136093611CE013495028A1
S2140036B00B608B6117D95388B3F5E16F01D8782872
S2140036C011D90F4A4DF601731360002D936102F174
S2140036D0007214BF4FF457434FF450431360936186
S2140036E00822084B01E0084B08221A6070BD00BF94
S2140036F0F0110020E81F0021084108440841084650
S214003700044108449440084694400844064B5A68CE
S21400371002F07062B2F1C06F1A4602D1DB6BDB06B4
S214003720F4D540239360704700400840224A9369CE
S21400373003F03001202910B50FD1C3F302441CB1A9
S214003740C3F3C422B2FBF4F413F4C01F18BF640022
S2140037506408032C28BF04240AE0936903F4E0738A
S214003760402B02D0B3F5807F01D1022400E0012473
S214003770112002F0D3F910490A6D93B233B1C00894
S214003780C2F307425043B0FBF3F000E018468B69E3
S21400379003F03002202A05D0302A09D0102A08D19A
S2140037A0400806E0C3F3C4230133B0FBF3F000E0A7
S2140037B08008604310BD00BF006008400D4BDB6C06
S2140037C013F0200F0CBF00200420D90644BF02309F
S2140037D0C0B21A0744BF0230C0B2590744BF023015
S2140037E0C0B29A0744BF0130C0B2DB0744BF013005
S2140037F0C0B2704700000840084B094908221A600A
S21400380001221A600A6040221A6020221A601022E2
S2140038101A6004221A6080221A607047C8400E465A
S214003820CC400E46044BD3F89430002BBCBF034B61
S214003830C3F88000704700BF004008400000084002
S214003840084B1968084B30B51B684FF0004400253C
S214003850E3FB00452A460023E1FB002310461946F9
S21400386030BD00BFC4110020C01100202DE9F04F6C
S21400387085B00446FFF7CCFE824620468B46FFF70F
S214003880DFFF214A136BD268D20704460D4638D5AF
S2140038905B0818460021CDE90001DDE90023AB42B4
S2140038A008BFA242CDE9024501D2CDE90223FFF7C7
S2140038B0AFFEB0EB0A0661EB0B07594508BF504553
S2140038C00FD2114B1A6B0023013243F100034FEA6B
S2140038D083094FEA820849EA927916EB080647EB15
S2140038E00907DDE902239F4208BF9642DFD3AF42B5
S2140038F008BFA64205D2A41B65EB070582468B4689
S214003900CBE705B0BDE8F08F005008402DE9F04F3A
S2140039108BB099469DF85030079305469046EFF3D6
S214003920108A72B6A24A030113440124079A06932A
S2140039301C604FF4807B9F4B0BFA00FB022AC3F8F7
S21400394064B01E4600F05F81FFF762FE079B012B06
S214003950CDE9000109D118F1010849F1000910EB81
S214003960080241EB090390469946306B0021421C41
S21400397041F10003CDE9022303998B00029943EA43
S21400398091738A00994508BF904504D3B8EB0208A6
S21400399069EB0309F6E7DDE90001B0EB080061EB2F
S2140039A00901CDE90801DDE90001494508BF4045A8
S2140039B0CDE904890FD27F49086B0021013041F11F
S2140039C000018F0047EA90778600DDE9080180193C
S2140039D07941CDE90801900840EA83709908DDE94D
S2140039E00823994208BF904204D3504601F0F6FFE0
S2140039F000200CE16F49086F41F61F7405F10903BA
S214003A000440C86E6C491A021B0642F001020140CF
S214003A1043F4803394420CBF042400249942654B3F
S214003A20D96E41F61F7308BF44F0020403EA01038F
S214003A3008BFE4B2934208BF44F0010414F0010347
S214003A40089302D05D4BC3E90089022D02D15C4B7E
S214003A50C3E90089DDE90001DDE90023B8EB0000D9
S214003A6069EB0101994508BF90450BD2514B1A6B83
S214003A700023013243F100039F00960047EA927745
S214003A8080197941DDE9022303F092FC4D4BC0B268
S214003A905855DDE90423DDE90267BB4208BFB242A0
S214003AA009D3DDE90467DDE90223B21A67EB0303F5
S214003AB0CDE90423EDE778B1089B1BB1424B41F6F4
S214003AC01F721A60A00742BF3F4B3B4A1A6061074D
S214003AD042BF384B00221A673C4B364E2A0113442D
S214003AE0049A5A60DDE90001DDE9022303F060FC78
S214003AF0039B029A434301FB0233A0FB02011944D5
S214003B00DDE9042312184B41CDE9022305F1100329
S214003B101B011122F250FFF77BFDDDE90089DDE98C
S214003B200023B0EB080861EB0909994208BF9042F0
S214003B300CD2326B0023013243F10003990090004F
S214003B4041EA927118EB000849EB0109DDE9002310
S214003B50DDE90267B61A67EB0307DDE90001DDE978
S214003B6002238B4208BF82420BD2124B1A6B0023F1
S214003B70013243F100039900900041EA9271361831
S214003B804F410C4BB94508BFB045DA6D3BD31BEA35
S214003B90020F38D10B4A525D012512B1C3F860B04E
S214003BA031E0079AA2B9069A1560C3F864B01CE71C
S214003BB0005108440050084000001F1FB8110020A4
S214003BC0D0110020A91100206C500844085108406C
S214003BD0C3F860B0089B43B10E4B0F4941F61F7205
S214003BE040F201101A6008601A60A20706D5094B59
S214003BF009490A4A0A481A6008601A60630742BF01
S214003C00084B01229A60504601F0E8FE01200BB0F6
S214003C10BDE8F08F6C5008446C50084600001F1F2B
S214003C20000001010040084008B501F023FA013801
S214003C30114A1249124B082819D8DFE800F0051877
S214003C400E0E1111151515000E480078116001288A
S214003C500CBF4FF0441244220BE01160002208E033
S214003C6011604FF0331204E01160A22201E01160EF
S214003C70054A1A6008BD00BF50410844F701F70125
S214003C8050410846F0110020A200F700F8B5384B66
S214003C90384A002808BF01201860374B9B69C3F3D9
S214003CA082131370023BDBB2042B05D8012202FA02
S214003CB003F313F0130F08D1304B1B78022B06D0FA
S214003CC0012B0CBF3222B42202E0002200E0962232
S214003CD0002302FA03F442F2107564116C43284D77
S214003CE0B4FBF5F4844202D80133102BF1D12248FC
S214003CF01204C0F8BC20234A40F6FF741460013B4F
S214003D0002F100721B021360D0F8BC20D0F8BC3061
S214003D10D0F8BC50D0F8B8E0D0F8B860D0F8B8709A
S214003D20164CC6F303100EF00F0EC3F30723D2B2E1
S214003D3002FA0EF28340C7F30327C5F3074542F2A3
S214003D401070BD405B1152110D4E43434243B3FB0E
S214003D50F6F3B2FBF6F26D1113446843B0FBF6F0CF
S214003D60034408460121A38000F0CEFFA088F8BDDA
S214003D70C81100202500002000600840F011002037
S214003D8000DC0500B8600844F8B50446C820FFF714
S214003D9061FC444B444F1A78032A02D1FF243C703E
S214003DA07DE0012A414911D1072C03D8012C08BF18
S214003DB0022400E007240A683D4B134043EA0463EC
S214003DC00B603C4B04221A60A4B263E00A6822F03F
S214003DD0F95222F4FE1242F47F5242F008020A60C0
S214003DE01E782EB9042C05D9043CE4B2012502E065
S214003DF0002500E03546304BD3F88831DB4303F42A
S214003E00FE1343F40053B3FA83F3C3F11303C3EB77
S214003E104313DBB2A34228BF2346DBB29CB226B9CB
S214003E20002D0CBF0020042000E00020044423489E
S214003E301BB9234EC0F8586105E04FF0E066013B21
S214003E40C0F85861DBB21F20B3FBF0F0C0EB4016A1
S214003E509B1B1B0603F18073C0B213430130012283
S214003E608240013A43EA82320A60144AD2F8583154
S214003E7034B123F07F4323F0040343F07F4300E094
S214003E80104BC2F858314FF480030DB10E4A00E0D3
S214003E900E4A1360E4B220463C70FFF7DBFB204678
S214003EA0F8BD00BFF011002024000020E81F00210C
S214003EB03F00C0E05841084400400E400040084023
S214003EC02C00000704000007084108460841084483
S214003ED0094A0A494FF48033C2F8E8300B60916B08
S214003EE0074BC9B29961926BC2F307229A6104220A
S214003EF09A6100229A61704700100840EC1008464C
S214003F006010084010B5EFF3108072B60E4A0F49E5
S214003F100F4C01239365C2F8883000230B604C6079
S214003F2003244C620B490C800B490B804FF4A021F4
S214003F30C2F8E81002F1C062EC321160074ABDE830
S214003F401040136001F04ABD0010084060100840A1
S214003F5058110020B0110020AE1100209C11002046
S214003F60034B044A18601860034B12681A60FEE799
S214003F7020000020CC1100201C000020431E012B36
S214003F8003D9031F584258417047012070477047B5
S214003F9038B50B4BB1F912201D680A4B04791B7813
S214003FA047F6FF718A4208D02846194602F052F8B2
S214003FB084428CBF0020012038BD012038BD00BFE0
S214003FC0CC110020F01100202DE9F047904B914EC7
S214003FD0D3F8A090F768D3F8A480044600F128052B
S214003FE000294AD00A68531C47D0C2F3026CDFF897
S214003FF050E2C2F307405EF82CE093B2012843EA91
S2140040000E030FD98C460246C1EB030EE644013A76
S2140040105CF804AFCEF800A0F6D101EB800101F108
S214004020040A28E0120F01F1080A4868072A22D875
S214004030DFE802F00D04080B0F12171DC04303F152
S214004040806304E01A68504001E003F1C063186022
S21400405011E0FFF70BFC0EE00122824003F1C06383
S21400406003E00122824003F180631A6003E01A68CD
S21400407002408242FBD15146B2E7FFF7D5FD664BC0
S214004080664A9B691278C3F382139A4204D0644B43
S21400409029461868FFF7FAFD624800F0EFFE8246F0
S2140040A0FFF744FB60495A4A43084FEADA0A03EB33
S2140040B0CA13B3FBF0F008605368D80215D45B4B04
S2140040C01B68D2F8A820C3F38103581C12F480633F
S2140040D0D2B218BFC300FF2A08D04D4AD2F8AC208F
S2140040E0520503D503EBC00300E000238B604A4B68
S2140040F0D3F8842012F4E05F04BF2022C3F8102215
S214004100434BF668D3F8A010D3F8A42049450AD04C
S21400411047480378C1F3802E6EF30003C1F3C02135
S21400412061F34103037042450AD041490B78C2F35C
S214004130802060F38203C2F3C02262F3C3030B70D5
S214004140BE425ED03B4B3C4F36B1326822B1D6F809
S21400415008E0BEF1000F0ED1EFF3108072B61A68B9
S21400416022F007021A6001F039FC00233B607B60F6
S2140041707EBB334636E0314A072111609EF80420A4
S2140041803A709EF8050090FAA0F1B1FA81F2202A62
S21400419008BF4FF0FF32D1B2C84002F00F0242EA29
S2140041A000127A709EF80620BA709EF80720FA7001
S2140041B0DEF800207A609EF80420154901328A61F4
S2140041C0EFF3108072B61A6842F007021A6001F028
S2140041D005FC336833B132691AB191681368D28925
S2140041E002E0134619461A4692B2A36243F2C82367
S2140041F09A4228BF1A462163E2862846072100F025
S21400420083FD237843F0020323700020BDE8F08787
S21400421000000840EC1F0021006008402500002038
S214004220C8110020605107008C1F002100200840A4
S21400423054090020F81E0021541F002104000844E1
S214004240E897000008B590F86030032B04D00846C5
S214004250FFF79AFD002008BD022008BD38B50C4BBC
S214004260D3F8EC5003F18063EC334FF480641C60A9
S214004270084B00201860FEF7F3FD074B4FF4005282
S2140042801A606A0542BF03F1007398331C6038BD9C
S21400429000100840D8110020541008441C4B5B68DE
S2140042A003F07063B3F1E06F30D010D8B3F1407F05
S2140042B020D005D8B3F1807F28D0B3F1007F04E08A
S2140042C0B3F1806F22D0B3F1A06F17D11EE0B3F127
S2140042D0206F11D007D8B3F1006F0DD0B3F1106F77
S2140042E00CD105207047B3F1306F05D0B3F1406FA5
S2140042F002D003E00320704704207047054BDB68BC
S21400430013F0060F14BF04200120704702207047E8
S214004310004008400050084070B5037899070446EE
S2140043203DD5426A002A3AD06FF3410303705369C1
S2140043301B685A1C09D01A48D0F83C2199B2130CB5
S2140043401B040B43C0F83C3170BDD0E91223002299
S21400435003F00403134304D1037843F0020303700D
S21400436070BDEFF3108072B62569E36805F48035FA
S2140043702B43E36001F032FB00220DB9002300E07E
S2140043800423D4E9120102400B4052EA030106D08E
S2140043900449A4F10C000968BDE87040084770BDE8
S2140043A0004008402C0000202DE9F8439846436959
S2140043B0012B06460D46174600F09D80FFF76EFF60
S2140043C001280DD1BB897C68BF68ED1AADB23F2DC0
S2140043D010D9AA09BB0102FB034405F03F0509E01A
S2140043E0002101200A4600F0DBFBFFF757FF0128FB
S2140043F0FBD1E7E7554B1A68A242994606D1544BC3
S2140044001B68BB4202D1B8F1000F5DD000F032FE4F
S214004410804600F02FFE002870D04E4BB3FBF0F322
S2140044209C426BD34C4BB3FBF0F0844266D8B8F199
S214004430010F4FF0100300F08280484A1360B8F175
S214004440000F7FD0C9F8004004FB08F4444ADFF8A8
S21400445028910023E004610B02F0AAFFC9F82C00A3
S214004460D9F830303E48C3F31303A3FB00014FEAEC
S214004470C842002302F09CFF3A4B394A1860344B7E
S214004480F8041F60A0FB08017B0B08FB0311002348
S21400449002F08EFF344FC9F83C003B7823B9D9F8B8
S2140044A0503003F03F033B70304BD3F894305A063D
S2140044B028D400F05DFD2D4BD3F83831DB0654BF11
S2140044C02B482C4800F01EFD3046FFF725FF274BF3
S2140044D05B68C3F30363042BF9D00A2BF7D013B140
S2140044E00F20FFF73DFD244B9D6303F5805380228C
S2140044F09A6000F03DFD0020BDE8F8830E20FFF72F
S2140045002FFD1FE01D4AB4FBF2F240F24D5302FBB2
S21400451002F14B434CF20C6101FB123303F5C91355
S21400452003F555631BB92B20FFF71AFD01233978D5
S214004530134A4A43B2FBF3F30F4A1365B9E7114A2D
S21400454013607FE70220BDE8F88300BFFC1100205F
S214004550F811002000371789007DDAAC384108468C
S21400456000F04902EC110020E41100200040084051
S214004570C0CF6A00E06735000030084000366E01A4
S21400458080969800384108442DE9F04F754F764ADA
S2140045903B68D2F8008087B0044601936388009396
S2140045A0656A019BD4F82090039200209D428DF806
S2140045B016000E468DF8170004D11DB1009B9942D7
S2140045C000F0CD80B9F1000F00F0C480D9F80820C3
S2140045D0002A00F0BF80D9F80C20002A00F0BA802C
S2140045E04FF0000BD9F80C2093451DD2D9F80820BF
S2140045F04FF0180A0AFB0B2ABAF80E20B24210D85F
S214004600BAF81020B2420CD30125204651468DF848
S2140046101750FFF7BDFC18B18DF81650554603E04D
S21400462055460BF1010BDDE7504A1178504A1378D6
S2140046309DF816200293A4F10C0B12B120462179A6
S21400464011E09DF81720002A00F08680B5F91220A8
S21400465047F6FF70824204D0584601F0FBFC014644
S21400466000E0FF212046FFF7EDFDB8F1000F31D046
S214004670C84524D1D7F800A0BAF1000F1FD0AA452C
S2140046801DD1009BB34204D1C4F824A0668000204C
S21400469065E02A46204631460023FFF785FE05469C
S2140046A00028F1D002992046FFF7CCFD2D4B00994B
S2140046B01A6820460023FFF777FE28464FE0D8F812
S2140046C000203AB1D9F800108A4203D12046D8F823
S2140046D0041002E0D9F800102046FFF775FC824669
S2140046E0C8B920462968FFF76FFC824698B9039B35
S2140046F06562C3F800906680204631462A4601234C
S2140047003D60FFF751FE824628B91A4B58461B6893
S2140047102946984722E0039BC3F80080019B3B6034
S214004720B8F1000F04D02046D8F80010FFF74CFC74
S21400473020460299FFF786FD3B687BB11968204644
S214004740FFF742FC074B00991A6820460023FFF744
S2140047502BFE03E0032002E0012000E0504607B0F5
S214004760BDE8F08FE0110020DC110020F0110020E1
S2140047702400002028000020F8B506460D4611B992
S2140047801F20FFF7EDFB00233562736215B91F206B
S214004790FFF7E6FBE86800214FF6FF73CAB28242D5
S2140047A00CD2AC68182707FB0242D4899C4201D27F
S2140047B00CB904E01C4601312346EFE71C463046A0
S2140047C02146FFF7E1FE2046F8BD70B590F8603050
S2140047D0032B05460E4611D02971416A61B1FFF7D9
S2140047E0D7FB28B9686269882846FFF7CDFE03E044
S2140047F028463146FFF726FD002070BD022070BD1A
S214004800084BD3F8882012F0A00F0AD108229A602D
S214004810054B1B6813F4007F14BF044A044A0223A6
S2140048201360704700400840081F002100400846FB
S2140048300040084410B5046884EA010323EA020233
S21400484000F1806314401C6040F8042C00F1C06046
S2140048500A40026010BD70470A4A53685B0708D1D9
S214004860094B5B682BB1094B1B6AC3F30C03013B76
S2140048709361074B80221A60064A136823F04003B0
S2140048801360704700000840541F002100100840C5
S21400489088400846F81E0021EFF3108072B60A4BD7
S2140048A04FF080521A604FF480721A6010221A601D
S2140048B020221A604FF000521A6080221A604022AE
S2140048C01A6001F08BB800BF00E100E0EFF3108043
S2140048D072B6114B4FF08052C3F880204FF48072AE
S2140048E0C3F880200222C3F880201022C3F880205C
S2140048F02022C3F880204FF00052C3F88020802288
S214004900C3F880204022C3F880204FF00042C3F84E
S214004910802001F063B800BF00E100E0EFF31080F4
S21400492072B6124B1978B9B9114BD3E9002300239C
S21400493002F4105213430FD10E4B10221A600C4B88
S214004940D3E90023002302F4807213430AD00A4BF3
S21400495020221A6001F042B8074B10221A60002984
S214004960F5D1ECE72022034BF3E700BF9B110020B4
S21400497040140020944008449440084670B504460D
S21400498016460D46FFF7CAFF04F0AA62002313433B
S21400499048F2020108BF4FF40041B20748BF41F495
S2140049A000514F480022FFF745FF04F40042002361
S2140049B0134304F480324FF0000314BF4FF48051C9
S2140049C00021134304F010024FF0000318BF41F417
S2140049D08071134304F020024FF0000318BF41F427
S2140049E00051134304F040024FF0000318BF41F497
S2140049F00071134304F080024FF0000318BF41F427
S214004A008061134318BF41F4006136480022FFF767
S214004A1011FF05F004030022134304F400624FF074
S214004A20000314BF4FF480210021134304F4804296
S214004A304FF0000318BF41F48031134304F0020224
S214004A404FF0000318BF41F4801113434FF00003EA
S214004A5004F4003218BF41F40011134318BF41F4A8
S214004A600021730748BF41F004011F480122FFF7E9
S214004A70E1FE1E4B1E491F4816F0010F08BF1946DF
S214004A8004F00052002313434FF0000304F080426A
S214004A9018BF41F40011134318BF41F00071002203
S214004AA0FFF7C8FE04F0010113480022FFF7C2FE1C
S214004AB004F4802200231343104B1149114804F0DC
S214004AC004044FF0000508BF194654EA050318BF52
S214004AD041F480614FF4A022BDE87040FFF7AABE03
S214004AE06C0008400C620840204008400418500043
S214004AF0041C5000685008403C700840090A0A0927
S214004B000D0A0A09EC100840044B00221A70044BE8
S214004B10197811B11A70FFF701BF70479A1100207B
S214004B209B11002038B50C4B1B789BB10B4B1C6DB2
S214004B30C4F30C0474B9FFF7E7FF094B094DD3E93A
S214004B4000012246012300F4805000212B7001F062
S214004B506FF92C7038BD00BF9A1100200010084075
S214004B604014002034140020EFF3108072B6094B76
S214004B705B68C3F30363032B01BF074A136823F084
S214004B80F00343F0E00308BF1360044B01225A62AF
S214004B9000F024BF004008405C1F002100000840D1
S214004BA02DE9F04781460F461646EFF3108872B699
S214004BB03E4D91B9A0232B603D4BD3F83021D20750
S214004BC01AD53C4901220A604FF4006159663A49F9
S214004BD00A604FF480525A660EE0FEF7FFFC374B31
S214004BE001221A6004232B60354B5B6813F0706F4C
S214004BF0E0D0FEF78BFDF7E72D4C324BE366002343
S214004C002367FEF7EBFC304ADFF8B4A0136843F0E6
S214004C10400313602D4BFF221A604FF48073CAF8CE
S214004C20083004232B60B9F1000F10D0FFF79CFF6B
S214004C302220FEF7F7FD4FF4802363602023CAF896
S214004C4008301D4B01221A604FF4805363663FB351
S214004C503046FEF705F91E4B01221A6006B31D4BBF
S214004C60DA6E9A6603F580431A6ADA6103F5005332
S214004C70D3F80C22C3F80822A3F54053DA6F9A67DC
S214004C80A3F50053D3F8EC20C3F8E82003F5C0439F
S214004C90DA6B9A63A3F500530F4A5A66FFF734FFA0
S214004CA04046BDE8F04700F099BE00BF8840084483
S214004CB00050084030510844405108440C40084613
S214004CC00040084000000101F81E00210040084492
S214004CD00C400844000008405000F002094B1B68D6
S214004CE030B5C517A0FB030110F1807003FB05115A
S214004CF041F10001400E40EAC110803820EAE07021
S214004D0030BD00BFE81100202DE970430D46044673
S214004D10002800F0A880E90756D5C38A53B18168F9
S214004D20524A521A524988881B1A4FF47A7000FB6E
S214004D30032001E047F23050FFF7D0FF4D4E638A64
S214004D40F06153B1A168494A521A494988881B1A2A
S214004D504FF47A7000FB032001E047F23050FFF773
S214004D60BDFFA38A706163B1A2684048801A404ABA
S214004D7091884FF47A72591A02FB010322689A1A34
S214004D8001E047F230523C4B19684FEAE279A2FB49
S214004D90012312F1807201FB093343F10003520E26
S214004DA042EAC312638B803AB26143B1304A9088BC
S214004DB0181A4FF47A735843A0F6C41001E047F26D
S214004DC03050FFF78BFFB062AA072DD5E3894FF46A
S214004DD07A7058435BB1236803F51C5310331844AC
S214004DE02379002B46F2A81308BF00231844FFF7C8
S214004DF075FF204B228B58621E4682B1A3684FF483
S214004E007A7000FB02332279A3F50353002A46F298
S214004E10A810A3F1100308BF0020181A01E047F2FB
S214004E203050FFF75BFF30626B071CD5208A30B12D
S214004E304FF47A735843A0F50350103801E047F258
S214004E403050FFF74BFF0B4BA289D8604FF47A70B7
S214004E5050431D4622B1236803F51C5310331844F3
S214004E60FFF73CFF2861BDE8708300BF3CF6FFFFFC
S214004E70F01100208C1F0021E811002008B500F476
S214004E807813B3F5802F1FD009D8BBB1B3F5003F18
S214004E9032D100F061FC1A4BD3F808311EE0B3F5AE
S214004EA0002F17D0B3F5202F1BD0B3F5C02F23D17A
S214004EB000F052FC124BD3F810310FE000F04CFC1F
S214004EC00F4BD3F8003111E000F046FC0C4BD3F842
S214004ED00C3103E0BDE8084000F03EBCC3F30823F5
S214004EE006E000F039FC064BD3F81431C3F3042374
S214004EF00133B0FBF3F008BDBDE8084000F00EBE7D
S214004F0000400E4038B5134B4FF400221A60124A88
S214004F101060124A12681D46D2B1114B114C1B6F1D
S214004F2000F5F42000F59070B0FBF4F4033CE4B216
S214004F3003F00703A34202D0204600F0F1FC0A4B20
S214004F401B782BB1094B4FF4702224041A602C6096
S214004F5038BD00BF94400846300000208009C64394
S214004F6000300E4040420F000012002094400844DB
S214004F70F0B5334A334D51681068127A85B001ABEC
S214004F8003C331491A700C68304A3149936B09687B
S214004F9004FB0314136B13F4801F2E4B1B6804AA28
S214004FA014BFE418E41A2C4BB4FBF3F313442B4A57
S214004FB013F80B6C04ABF440B4FBF2F21A442B6803
S214004FC012F80B7C23B92B20FEF7CAFF01232B60B7
S214004FD02968234B43F6FF521A6004EB5102B2FBDA
S214004FE0F1F2013A42EA06331E4A43EA8723136087
S214004FF01D4AB4FBF2F302FB1344642254431B4ADB
S214005000944298BF03F1FF335D08013D5C1C6408C1
S214005010072D04F1FF3403D8072C01D81DB914B9A5
S2140050201020FEF79DFF124B4FF4EE621A602D0122
S21400503003F1007345EA04241C6005B0F0BD00BF10
S214005040F097000030000020F811002000300840E3
S214005050FC110020EC11002040BE4025401B5F13D1
S214005060A4400844A440084600F04902FFEF490265
S21400507030400844064B5B6B03F00700C3F3C503E0
S21400508013F0070218BF5043DB0818BF5843704799
S214005090003008402DE9F04F01288BB040F03E81EB
S2140050A08A88002A00F03C81B24E096896F800B063
S2140050B0BBF1000F00F03681AF4B1C781F46002C6A
S2140050C040F05481AD4805788046002D40F04E8172
S2140050D0AB4D286802EB0009B9F5806F02D982242F
S2140050E01C7043E1DFF8B0A2504402F03FFCBBF175
S2140050F0020FC5F8009049D0B9F1030F40F236818F
S214005100DFF8A892484601F0E9FA99F80030DAF894
S21400511000000290012B029A9A4B2DD19A422BD175
S214005120D9F80810C90327D50223337001F0C6FA50
S214005130954B1A68A2F17E63A3F58433B3F5104F3E
S214005140C0F0F2800398914B914A186020F4FF63F8
S21400515023F007034FF40061136001F05BFA08B117
S214005160852310E001F0F0F980B14FF4006101F002
S21400517051FA0028F4D109E09A4214BF842386230A
S2140051803B703B7813B13B701C46EFE03378022B44
S21400519040F0EC807F4BDFF804A21A7812F0F70F8D
S2140051A0994633D1794B2E681B6806F0030B1E44D4
S2140051B0DAF800301E44764BCBEB060626F4FF6684
S2140051C0196826F00706B14209D201F50060711A87
S2140051D0019301F01FFA019B00285BD11E6029682D
S2140051E0DAF80000CBEB0101FCF73CFE2A68DAF89F
S2140051F000306349CBEB0202064613446648CAF801
S214005200003001F0A7FA002E44D121E0DAF80020A1
S2140052102B681A44CAF800205B4A1168A1F17E6226
S214005220A2F58432B2F5104FC0F08C8040F2022610
S214005230594853492A6801F08DFA40F203239E42EA
S21400524068D040F201239E4202D080243C708DE05C
S21400525099F80030002B40F08980DAF800307F2B78
S21400526040F3848003A802A9FCF7D2FD10B9494B8D
S214005270039A1A7099F8003013F0F70F76D0424E62
S214005280DAF800303168A1F17E62A2F58432B2F518
S214005290104F01D38524D9E7096BA1F17E62A2F5F0
S2140052A08432B2F5104FF5D20020D1F80CC03A4A3D
S2140052B00146E0470028EDD1384BDFF8EC901B683C
S2140052C02B60334B1860364BC9F804303268A2F1B5
S2140052D07E63A3F58433B3F5104FDBD2936A31486F
S2140052E04FF4007198470028D4D13168244BA1F1BF
S2140052F07E62A2F58432B2F5104F1B682FD340F2BF
S214005300022625481E492A6801F024FA40F20323A3
S2140053109E421ED1012388F8003027E0002425E0B5
S2140053200D2423E0812421E0126BA2F17E63A3F515
S2140053308433B3F5104FBFF405AF936803A900207C
S2140053409847FFE6CE6A17481749134AB0470646FD
S2140053506EE740F201239E427FF477AF06E0CE6A06
S21400536010480D4A4946B0470646CAE720460BB0E5
S214005370BDE8F08F281400208C1A002001120020AF
S2140053802C140020EB17A6032808E10F2414002095
S21400539078160020301400205C090020201200201F
S2140053A069670000241200201012002080160020DA
S2140053B001282DE9F74340F00A818B88012B40F045
S2140053C008810B681B7803BB954A1360954A1360E7
S2140053D0954A1360954A1360954A1360954A137070
S2140053E0954A1360954A1360954B1A78022A1C4614
S2140053F001D101F053F901232370924B002018705D
S214005400914B1870914B187007E1032B40F0C58044
S2140054108E4B8B4D1878002840F0BC802B78002BE4
S21400542000F0B180834B1B78082B4FD17C4A136861
S214005430904653B9864C2368A3F17E63A3F5843364
S214005440B3F5104FC0F0C98045E013F003071CBF4A
S214005450C7F10407FFB2FE18B6F5806F00F297801A
S2140054607C48DFF8CC911844FF213A4602F0DEFA79
S214005470714A6C4B14681B68D9F80010C8F80060B5
S2140054801C44344424F4FF6424F00704A142164666
S21400549009D201F50060611A01F0BCF808B1852058
S2140054A078E0C9F80040D8F800103068FCF7DAFC5D
S2140054B03368D8F800205A4913440446DF1B654871
S2140054C0376001F047F9002CE9D1B3E7002B5CD038
S2140054D05C4B1B780BB980205CE0584E336843B9B0
S2140054E0524B5D491868102201F0ACF80028D6D15E
S2140054F050E013F003021CBFC2F10402D2B2D4186B
S214005500B4F5806F43D85548474F1844FF2102F042
S2140055108DFA5348534A54493B683460121A0A4479
S21400552022F4FF6222F00702934232D31C444F4B10
S2140055309B6C9BB29B02A3F580539C4229D2DFF85A
S214005540F08024F4FF64D8F8001024F00704A14289
S21400555008D201F50060611A01F05CF800289ED1BF
S214005560C8F800403D493268386801F06BF83B687F
S214005570326832490446134438483B6001F0EAF882
S214005580002C8CD1ACE7812004E0842002E082204D
S21400559000E0832000232B703FE0042B1BD1344C0B
S2140055A0344A35494FF40060132300F01DFE1323E0
S2140055B00221204663702170FDF7B8F92F4A304B60
S2140055C0128905329A802F4A1A6062789A710020F2
S2140055D023E00D2021E006201FE0FCF767FC0028F2
S2140055E07FF479AF22680190A2F17E63A3F584333D
S2140055F0B3F5104F04D3144B01221A700020C9E7EC
S214005600126BA2F17E63A3F58433B3F5104FF2D28A
S214005610936901A801219847EDE703B0BDE8F08340
S2140056202C14002024140020901A00207C16002041
S214005630781600203014002020120020941A002033
S21400564028140020011200208C0F00208C1A002045
S2140056502808E10F5C090020E01A00208C160020C4
S21400566010000020BC0000205FA10000B081E00F09
S21400567049110020F9970000D6960000900F0020F0
S21400568004100020B1230000E0B1114B1A68918885
S214005690814219D39988814281BF0121126899807D
S2140056A09A6099889A6842B1814202D199809A603C
S2140056B00BE00131126889B2F5E74FF6FF719A6088
S2140056C0998002E0024600E000221046704700BFC4
S2140056D0041200202DE9FF410A9EBDF82C700446F6
S2140056E088468DE80C00FFF7CFFF05461DB34445FE
S2140056F021D82B7A9DF80420686800999A4216D122
S21400570002F024F998B90EB9204622E02B69AA8A3D
S214005710A3B14FF6FE7E724510D10290ADF80C0094
S21400572002A9984718B90299BDF80C2041B901346E
S2140057302D68A4B2DAE74FF6FF700AE01946F5E7DF
S214005740BA42F4D130463A4602F000F90028DBD0DF
S214005750EDE704B0BDE8F0810C4BD3F8942002F0DE
S2140057600702022A03D004D3042A04D901E0084819
S21400577003E0084801E04FF40040D3F80031C3F3DB
S21400578004230133B0FBF3F0704700BF00400E4027
S21400579000F04902C0EA2101024B1A6FD96F0A4095
S2140057A09A67704700300840FDF772BBFDF770BB84
S2140057B0FDF76EBBFDF76CBBFDF76ABB0E4A136BBD
S2140057C0D16B0B4010B59363DB0714D50B4BD3E9B5
S2140057D00023002302F00102134302D11220FEF739
S2140057E0BFFB074C0123012000210022237000F09C
S2140057F01FFB0023237010BD0070084040140020DB
S214005800341400200F4A10B55369146A1C40A3B222
S214005810E107D36106D5516840F20510C1F3036174
S21400582000F09CFC63070CD5074B084C1A68002058
S2140058300123002102F00402237000F0F9FA00238D
S214005840237010BD00400840381400203414002097
S214005850304B1A6FD96CC90702F0070206D5012A29
S21400586004D9132818D91438132811E0DB6CD9078B
S21400587006D4012A04D809280ED90A38092807E0D0
S214005880244BDB6C13F0010309D0012A06D8272825
S2140058908CBF1023082302E0042300E000231D49E8
S2140058A0013BCA6C180340EA032322F47F421343E9
S2140058B0CB64194BCA6C1B88C2F30322283301320F
S2140058C002EB820003EB5303B3FBF0F3C86C013B1F
